{
  "contractName": "Auction",
  "abi": [
    {
      "inputs": [
        {
          "internalType": "uint256",
          "name": "_finalPrice",
          "type": "uint256"
        },
        {
          "internalType": "uint256",
          "name": "_minPrice",
          "type": "uint256"
        },
        {
          "internalType": "address",
          "name": "eoa",
          "type": "address"
        }
      ],
      "stateMutability": "nonpayable",
      "type": "constructor"
    },
    {
      "inputs": [],
      "name": "auctionDuration",
      "outputs": [
        {
          "internalType": "uint256",
          "name": "",
          "type": "uint256"
        }
      ],
      "stateMutability": "view",
      "type": "function"
    },
    {
      "inputs": [],
      "name": "auctionOwner",
      "outputs": [
        {
          "internalType": "address payable",
          "name": "",
          "type": "address"
        }
      ],
      "stateMutability": "view",
      "type": "function"
    },
    {
      "inputs": [],
      "name": "auctionState",
      "outputs": [
        {
          "internalType": "enum Auction.State",
          "name": "",
          "type": "uint8"
        }
      ],
      "stateMutability": "view",
      "type": "function"
    },
    {
      "inputs": [
        {
          "internalType": "address",
          "name": "",
          "type": "address"
        }
      ],
      "name": "bids",
      "outputs": [
        {
          "internalType": "uint256",
          "name": "",
          "type": "uint256"
        }
      ],
      "stateMutability": "view",
      "type": "function"
    },
    {
      "inputs": [],
      "name": "endBlock",
      "outputs": [
        {
          "internalType": "uint256",
          "name": "",
          "type": "uint256"
        }
      ],
      "stateMutability": "view",
      "type": "function"
    },
    {
      "inputs": [],
      "name": "finalPrice",
      "outputs": [
        {
          "internalType": "uint256",
          "name": "",
          "type": "uint256"
        }
      ],
      "stateMutability": "view",
      "type": "function"
    },
    {
      "inputs": [],
      "name": "highestBidder",
      "outputs": [
        {
          "internalType": "address payable",
          "name": "",
          "type": "address"
        }
      ],
      "stateMutability": "view",
      "type": "function"
    },
    {
      "inputs": [],
      "name": "highestBindingBid",
      "outputs": [
        {
          "internalType": "uint256",
          "name": "",
          "type": "uint256"
        }
      ],
      "stateMutability": "view",
      "type": "function"
    },
    {
      "inputs": [],
      "name": "minPrice",
      "outputs": [
        {
          "internalType": "uint256",
          "name": "",
          "type": "uint256"
        }
      ],
      "stateMutability": "view",
      "type": "function"
    },
    {
      "inputs": [],
      "name": "startBlock",
      "outputs": [
        {
          "internalType": "uint256",
          "name": "",
          "type": "uint256"
        }
      ],
      "stateMutability": "view",
      "type": "function"
    },
    {
      "inputs": [
        {
          "internalType": "address",
          "name": "_sender",
          "type": "address"
        }
      ],
      "name": "placeBid",
      "outputs": [],
      "stateMutability": "payable",
      "type": "function"
    },
    {
      "inputs": [
        {
          "internalType": "address",
          "name": "_sender",
          "type": "address"
        }
      ],
      "name": "finishAuction",
      "outputs": [],
      "stateMutability": "nonpayable",
      "type": "function"
    },
    {
      "inputs": [
        {
          "internalType": "address",
          "name": "_sender",
          "type": "address"
        }
      ],
      "name": "cancelAuction",
      "outputs": [],
      "stateMutability": "nonpayable",
      "type": "function"
    },
    {
      "inputs": [],
      "name": "returnState",
      "outputs": [
        {
          "internalType": "string",
          "name": "",
          "type": "string"
        }
      ],
      "stateMutability": "view",
      "type": "function"
    },
    {
      "inputs": [],
      "name": "currentBlockNumber",
      "outputs": [
        {
          "internalType": "uint256",
          "name": "",
          "type": "uint256"
        }
      ],
      "stateMutability": "view",
      "type": "function"
    },
    {
      "inputs": [],
      "name": "blocksLeft",
      "outputs": [
        {
          "internalType": "uint256",
          "name": "",
          "type": "uint256"
        }
      ],
      "stateMutability": "view",
      "type": "function"
    }
  ],
  "bytecode": "0x60806040523480156200001157600080fd5b50604051620018e8380380620018e8833981810160405281019062000037919062000190565b806000806101000a81548173ffffffffffffffffffffffffffffffffffffffff021916908373ffffffffffffffffffffffffffffffffffffffff1602179055506000600660006101000a81548160ff02191690836003811115620000a0576200009f620001ec565b5b0217905550600a6003819055506064600a81905550826001819055508160028190555043600481905550600354600454620000dc91906200024a565b600581905550505050620002a7565b600080fd5b6000819050919050565b6200010581620000f0565b81146200011157600080fd5b50565b6000815190506200012581620000fa565b92915050565b600073ffffffffffffffffffffffffffffffffffffffff82169050919050565b600062000158826200012b565b9050919050565b6200016a816200014b565b81146200017657600080fd5b50565b6000815190506200018a816200015f565b92915050565b600080600060608486031215620001ac57620001ab620000eb565b5b6000620001bc8682870162000114565b9350506020620001cf8682870162000114565b9250506040620001e28682870162000179565b9150509250925092565b7f4e487b7100000000000000000000000000000000000000000000000000000000600052602160045260246000fd5b7f4e487b7100000000000000000000000000000000000000000000000000000000600052601160045260246000fd5b60006200025782620000f0565b91506200026483620000f0565b9250827fffffffffffffffffffffffffffffffffffffffffffffffffffffffffffffffff038211156200029c576200029b6200021b565b5b828201905092915050565b61163180620002b76000396000f3fe6080604052600436106100f35760003560e01c80639c18782b1161008a578063e45be8eb11610059578063e45be8eb1461030a578063e494015714610335578063f14a421314610351578063f5b56c561461037c576100f3565b80639c18782b14610262578063a6b513ee1461028b578063d22cf3a4146102b6578063d3924aaf146102df576100f3565b806358b45557116100c657806358b45557146101a457806362ea82db146101cf5780637fb450991461020c57806391f9015714610237576100f3565b8063083c6323146100f85780630cbf54c814610123578063378ec23b1461014e57806348cd4cb114610179575b600080fd5b34801561010457600080fd5b5061010d6103a7565b60405161011a9190610fda565b60405180910390f35b34801561012f57600080fd5b506101386103ad565b6040516101459190610fda565b60405180910390f35b34801561015a57600080fd5b506101636103b3565b6040516101709190610fda565b60405180910390f35b34801561018557600080fd5b5061018e6103c0565b60405161019b9190610fda565b60405180910390f35b3480156101b057600080fd5b506101b96103c6565b6040516101c6919061108e565b60405180910390f35b3480156101db57600080fd5b506101f660048036038101906101f19190611113565b61059a565b6040516102039190610fda565b60405180910390f35b34801561021857600080fd5b506102216105b2565b60405161022e91906111b7565b60405180910390f35b34801561024357600080fd5b5061024c6105c5565b60405161025991906111f3565b60405180910390f35b34801561026e57600080fd5b5061028960048036038101906102849190611113565b6105eb565b005b34801561029757600080fd5b506102a0610981565b6040516102ad9190610fda565b60405180910390f35b3480156102c257600080fd5b506102dd60048036038101906102d89190611113565b610987565b005b3480156102eb57600080fd5b506102f4610a13565b60405161030191906111f3565b60405180910390f35b34801561031657600080fd5b5061031f610a37565b60405161032c9190610fda565b60405180910390f35b61034f600480360381019061034a9190611113565b610a3d565b005b34801561035d57600080fd5b50610366610f86565b6040516103739190610fda565b60405180910390f35b34801561038857600080fd5b50610391610fa0565b60405161039e9190610fda565b60405180910390f35b60055481565b60035481565b6000804390508091505090565b60045481565b60606000600660009054906101000a900460ff169050600060038111156103f0576103ef611140565b5b81600381111561040357610402611140565b5b03610446576040518060400160405280600781526020017f4f6e676f696e6700000000000000000000000000000000000000000000000000815250915050610597565b6001600381111561045a57610459611140565b5b81600381111561046d5761046c611140565b5b036104b0576040518060400160405280600581526020017f456e646564000000000000000000000000000000000000000000000000000000815250915050610597565b600260038111156104c4576104c3611140565b5b8160038111156104d7576104d6611140565b5b0361051a576040518060400160405280600c81526020017f5573657243616e63656c65640000000000000000000000000000000000000000815250915050610597565b60038081111561052d5761052c611140565b5b8160038111156105405761053f611140565b5b03610583576040518060400160405280600681526020017f4661696c65640000000000000000000000000000000000000000000000000000815250915050610597565b604051806020016040528060008152509150505b90565b60096020528060005260406000206000915090505481565b600660009054906101000a900460ff1681565b600860009054906101000a900473ffffffffffffffffffffffffffffffffffffffff1681565b60008190506002600381111561060457610603611140565b5b600660009054906101000a900460ff16600381111561062657610625611140565b5b1480610633575060055443115b61063c57600080fd5b60008054906101000a900473ffffffffffffffffffffffffffffffffffffffff1673ffffffffffffffffffffffffffffffffffffffff168173ffffffffffffffffffffffffffffffffffffffff1614806106d557506000600960008373ffffffffffffffffffffffffffffffffffffffff1673ffffffffffffffffffffffffffffffffffffffff16815260200190815260200160002054115b6106de57600080fd5b600080600254600754101561073757829150600960008473ffffffffffffffffffffffffffffffffffffffff1673ffffffffffffffffffffffffffffffffffffffff1681526020019081526020016000205490506108ef565b60008054906101000a900473ffffffffffffffffffffffffffffffffffffffff1673ffffffffffffffffffffffffffffffffffffffff168373ffffffffffffffffffffffffffffffffffffffff16036107b75760008054906101000a900473ffffffffffffffffffffffffffffffffffffffff16915060075490506108ee565b600860009054906101000a900473ffffffffffffffffffffffffffffffffffffffff1673ffffffffffffffffffffffffffffffffffffffff168373ffffffffffffffffffffffffffffffffffffffff16036108a757600860009054906101000a900473ffffffffffffffffffffffffffffffffffffffff16915060075460096000600860009054906101000a900473ffffffffffffffffffffffffffffffffffffffff1673ffffffffffffffffffffffffffffffffffffffff1673ffffffffffffffffffffffffffffffffffffffff168152602001908152602001600020546108a0919061123d565b90506108ed565b829150600960008473ffffffffffffffffffffffffffffffffffffffff1673ffffffffffffffffffffffffffffffffffffffff1681526020019081526020016000205490505b5b5b6000600960008473ffffffffffffffffffffffffffffffffffffffff1673ffffffffffffffffffffffffffffffffffffffff168152602001908152602001600020819055508173ffffffffffffffffffffffffffffffffffffffff166108fc829081150290604051600060405180830381858888f1935050505015801561097a573d6000803e3d6000fd5b5050505050565b60015481565b600081905060008054906101000a900473ffffffffffffffffffffffffffffffffffffffff1673ffffffffffffffffffffffffffffffffffffffff168173ffffffffffffffffffffffffffffffffffffffff16146109e457600080fd5b6002600660006101000a81548160ff02191690836003811115610a0a57610a09611140565b5b02179055505050565b60008054906101000a900473ffffffffffffffffffffffffffffffffffffffff1681565b60025481565b60008054906101000a900473ffffffffffffffffffffffffffffffffffffffff1673ffffffffffffffffffffffffffffffffffffffff163373ffffffffffffffffffffffffffffffffffffffff1603610acb576040517f08c379a0000000000000000000000000000000000000000000000000000000008152600401610ac2906112bd565b60405180910390fd5b600454431015610b10576040517f08c379a0000000000000000000000000000000000000000000000000000000008152600401610b0790611329565b60405180910390fd5b600a54341015610b55576040517f08c379a0000000000000000000000000000000000000000000000000000000008152600401610b4c90611395565b60405180910390fd5b600154341115610b9a576040517f08c379a0000000000000000000000000000000000000000000000000000000008152600401610b9190611427565b60405180910390fd5b6000600a5434610baa9190611476565b14610bea576040517f08c379a0000000000000000000000000000000000000000000000000000000008152600401610be190611519565b60405180910390fd5b60006003811115610bfe57610bfd611140565b5b600660009054906101000a900460ff166003811115610c2057610c1f611140565b5b14610c60576040517f08c379a0000000000000000000000000000000000000000000000000000000008152600401610c5790611585565b60405180910390fd5b6000819050600034600960008473ffffffffffffffffffffffffffffffffffffffff1673ffffffffffffffffffffffffffffffffffffffff16815260200190815260200160002054610cb291906115a5565b90506007548111610cc257600080fd5b6001546007541115610cd357600080fd5b80600960008473ffffffffffffffffffffffffffffffffffffffff1673ffffffffffffffffffffffffffffffffffffffff16815260200190815260200160002081905550600554431015610f555760096000600860009054906101000a900473ffffffffffffffffffffffffffffffffffffffff1673ffffffffffffffffffffffffffffffffffffffff1673ffffffffffffffffffffffffffffffffffffffff168152602001908152602001600020548111610e0c57610e01600a5482610d9a91906115a5565b60096000600860009054906101000a900473ffffffffffffffffffffffffffffffffffffffff1673ffffffffffffffffffffffffffffffffffffffff1673ffffffffffffffffffffffffffffffffffffffff16815260200190815260200160002054610fa6565b600781905550610f50565b6001548110610e8f5760015460078190555081600860006101000a81548173ffffffffffffffffffffffffffffffffffffffff021916908373ffffffffffffffffffffffffffffffffffffffff1602179055506001600660006101000a81548160ff02191690836003811115610e8557610e84611140565b5b0217905550610f4f565b610f0781600a5460096000600860009054906101000a900473ffffffffffffffffffffffffffffffffffffffff1673ffffffffffffffffffffffffffffffffffffffff1673ffffffffffffffffffffffffffffffffffffffff16815260200190815260200160002054610f0291906115a5565b610fa6565b60078190555081600860006101000a81548173ffffffffffffffffffffffffffffffffffffffff021916908373ffffffffffffffffffffffffffffffffffffffff1602179055505b5b610f81565b6001600660006101000a81548160ff02191690836003811115610f7b57610f7a611140565b5b02179055505b505050565b60008043905080600554610f9a919061123d565b91505090565b60075481565b6000818311610fb757829050610fbb565b8190505b92915050565b6000819050919050565b610fd481610fc1565b82525050565b6000602082019050610fef6000830184610fcb565b92915050565b600081519050919050565b600082825260208201905092915050565b60005b8381101561102f578082015181840152602081019050611014565b8381111561103e576000848401525b50505050565b6000601f19601f8301169050919050565b600061106082610ff5565b61106a8185611000565b935061107a818560208601611011565b61108381611044565b840191505092915050565b600060208201905081810360008301526110a88184611055565b905092915050565b600080fd5b600073ffffffffffffffffffffffffffffffffffffffff82169050919050565b60006110e0826110b5565b9050919050565b6110f0816110d5565b81146110fb57600080fd5b50565b60008135905061110d816110e7565b92915050565b600060208284031215611129576111286110b0565b5b6000611137848285016110fe565b91505092915050565b7f4e487b7100000000000000000000000000000000000000000000000000000000600052602160045260246000fd5b600481106111805761117f611140565b5b50565b60008190506111918261116f565b919050565b60006111a182611183565b9050919050565b6111b181611196565b82525050565b60006020820190506111cc60008301846111a8565b92915050565b60006111dd826110b5565b9050919050565b6111ed816111d2565b82525050565b600060208201905061120860008301846111e4565b92915050565b7f4e487b7100000000000000000000000000000000000000000000000000000000600052601160045260246000fd5b600061124882610fc1565b915061125383610fc1565b9250828210156112665761126561120e565b5b828203905092915050565b7f41756374696f6e206f776e65722c2063616e6e6f742062696400000000000000600082015250565b60006112a7601983611000565b91506112b282611271565b602082019050919050565b600060208201905081810360008301526112d68161129a565b9050919050565b7f41756374696f6e20686173206e6f742073746172746564000000000000000000600082015250565b6000611313601783611000565b915061131e826112dd565b602082019050919050565b6000602082019050818103600083015261134281611306565b9050919050565b7f4269642073686f756c642062652061746c656173742031303020776569000000600082015250565b600061137f601d83611000565b915061138a82611349565b602082019050919050565b600060208201905081810360008301526113ae81611372565b9050919050565b7f4269642073686f756c64206265206e6f74206d6f7265207468616e206d61782060008201527f5072696365000000000000000000000000000000000000000000000000000000602082015250565b6000611411602583611000565b915061141c826113b5565b604082019050919050565b6000602082019050818103600083015261144081611404565b9050919050565b7f4e487b7100000000000000000000000000000000000000000000000000000000600052601260045260246000fd5b600061148182610fc1565b915061148c83610fc1565b92508261149c5761149b611447565b5b828206905092915050565b7f4269642073686f756c6420626520646976646561626c6520627920313030207760008201527f6974686f7574206672616374696f6e0000000000000000000000000000000000602082015250565b6000611503602f83611000565b915061150e826114a7565b604082019050919050565b60006020820190508181036000830152611532816114f6565b9050919050565b7f41756374696f6e2068617320656e646564206f722063616e63656c6c65640000600082015250565b600061156f601e83611000565b915061157a82611539565b602082019050919050565b6000602082019050818103600083015261159e81611562565b9050919050565b60006115b082610fc1565b91506115bb83610fc1565b9250827fffffffffffffffffffffffffffffffffffffffffffffffffffffffffffffffff038211156115f0576115ef61120e565b5b82820190509291505056fea26469706673582212204870135b12614831eaf6288bcc01957ba34016b5d50fb00608dab61b1cbb05dc64736f6c634300080d0033",
  "immutableReferences": {},
  "source": "// SPDX-License-Identifier: GPL-3.0\r\n\r\npragma solidity >=0.7.0 <0.9.0;\r\n\r\ncontract AuctionCreator {\r\n    Auction[] public auctions;\r\n\r\n    function CreateAuction(uint256 finalPrice, uint256 minPrice) public {\r\n        require(minPrice <= finalPrice);\r\n        Auction newAuction = new Auction(finalPrice, minPrice, msg.sender);\r\n        auctions.push(newAuction);\r\n    }\r\n\r\n    // Duomen nuskaitymas i jau sukurto kontrakto - getters\r\n\r\n    function getAuctionCount() public view returns (uint256) {\r\n        return auctions.length;\r\n    }\r\n\r\n    function getAuctions() public view returns (Auction[] memory) {\r\n        return auctions;\r\n    }\r\n\r\n    function getAuctionOwner(uint256 _auctionIndex)\r\n        public\r\n        view\r\n        returns (address)\r\n    {\r\n        return Auction(address(auctions[_auctionIndex])).auctionOwner();\r\n    }\r\n\r\n    function getHighestBidder(uint256 _auctionIndex)\r\n        public\r\n        view\r\n        returns (address)\r\n    {\r\n        return Auction(address(auctions[_auctionIndex])).highestBidder();\r\n    }\r\n\r\n    function getHighestBindingBid(uint256 _auctionIndex)\r\n        public\r\n        view\r\n        returns (uint256)\r\n    {\r\n        return Auction(address(auctions[_auctionIndex])).highestBindingBid();\r\n    }\r\n\r\n    function getAuctionMinPrice(uint256 _auctionIndex)\r\n        public\r\n        view\r\n        returns (uint256)\r\n    {\r\n        return Auction(address(auctions[_auctionIndex])).minPrice();\r\n    }\r\n\r\n    function getAuctionFinalPrice(uint256 _auctionIndex)\r\n        public\r\n        view\r\n        returns (uint256)\r\n    {\r\n        return Auction(address(auctions[_auctionIndex])).finalPrice();\r\n    }\r\n\r\n    function getAuctionDuration(uint256 _auctionIndex)\r\n        public\r\n        view\r\n        returns (uint256)\r\n    {\r\n        return Auction(address(auctions[_auctionIndex])).auctionDuration();\r\n    }\r\n\r\n    function getAuctionState(uint256 _auctionIndex)\r\n        public\r\n        view\r\n        returns (string memory)\r\n    {\r\n        return Auction(address(auctions[_auctionIndex])).returnState();\r\n    }\r\n\r\n    function getCurrentBlock(uint256 _auctionIndex)\r\n        public\r\n        view\r\n        returns (uint256)\r\n    {\r\n        return Auction(address(auctions[_auctionIndex])).currentBlockNumber();\r\n    }\r\n\r\n    function getBlocksLeft(uint256 _auctionIndex)\r\n        public\r\n        view\r\n        returns (uint256)\r\n    {\r\n        return Auction(address(auctions[_auctionIndex])).blocksLeft();\r\n    }\r\n\r\n    // Duomen raymas  blok grandin (biddinimas, ataukimas, auciono rezultatai) - setters\r\n\r\n    function placeBid(uint256 _auctionIndex) public payable {\r\n        uint256 bid = msg.value;\r\n        Auction(address(auctions[_auctionIndex])).placeBid{value: bid}(\r\n            msg.sender\r\n        );\r\n    }\r\n\r\n    function cancelAuction(uint256 _auctionIndex) public {\r\n        Auction(address(auctions[_auctionIndex])).cancelAuction(msg.sender);\r\n    }\r\n\r\n    function finishAuction(uint256 _auctionIndex) public {\r\n        Auction(address(auctions[_auctionIndex])).finishAuction(msg.sender);\r\n    }\r\n}\r\n\r\ncontract Auction {\r\n    address payable public auctionOwner;\r\n    uint256 public finalPrice;\r\n    uint256 public minPrice;\r\n    uint256 public auctionDuration; // in block num\r\n\r\n    uint256 public startBlock;\r\n    uint256 public endBlock;\r\n\r\n    enum State {\r\n        Ongoing,\r\n        Ended,\r\n        UserCancelled,\r\n        Failed\r\n    }\r\n\r\n    State public auctionState;\r\n\r\n    uint256 public highestBindingBid;\r\n    address payable public highestBidder;\r\n\r\n    mapping(address => uint256) public bids;\r\n    uint256 bidIncrement;\r\n\r\n    constructor(\r\n        uint256 _finalPrice,\r\n        uint256 _minPrice,\r\n        address eoa\r\n    ) {\r\n        auctionOwner = payable(eoa);\r\n        auctionState = State.Ongoing;\r\n        auctionDuration = 10;\r\n        bidIncrement = 100;\r\n        finalPrice = _finalPrice;\r\n        minPrice = _minPrice;\r\n        startBlock = block.number;\r\n        endBlock = startBlock + auctionDuration; // 1 blokas 15 sec, 40 bloku = 10 min\r\n    }\r\n\r\n    modifier notOwner() {\r\n        require(msg.sender != auctionOwner, \"Auction owner, cannot bid\");\r\n        _;\r\n    }\r\n\r\n    modifier afterStart() {\r\n        require(block.number >= startBlock, \"Auction has not started\");\r\n        _;\r\n    }\r\n\r\n    modifier beforeEnd() {\r\n        require(block.number <= endBlock, \"Auction has ended\");\r\n        _;\r\n    }\r\n\r\n    // bidinimo funkcija\r\n    function placeBid(address _sender) public payable notOwner afterStart {\r\n        require(msg.value >= bidIncrement, \"Bid should be atleast 100 wei\");\r\n        require(\r\n            msg.value <= finalPrice,\r\n            \"Bid should be not more than max Price\"\r\n        );\r\n        require(\r\n            msg.value % bidIncrement == 0,\r\n            \"Bid should be divdeable by 100 without fraction\"\r\n        );\r\n        require(\r\n            auctionState == State.Ongoing,\r\n            \"Auction has ended or cancelled\"\r\n        );\r\n\r\n        address sender = _sender;\r\n        uint256 currentBid = bids[sender] + msg.value;\r\n\r\n        require(currentBid > highestBindingBid);\r\n        require(highestBindingBid <= finalPrice);\r\n\r\n        bids[sender] = currentBid;\r\n\r\n        if (block.number < endBlock) {\r\n            if (currentBid <= bids[highestBidder]) {\r\n                highestBindingBid = min(\r\n                    currentBid + bidIncrement,\r\n                    bids[highestBidder]\r\n                );\r\n            } else {\r\n                if (currentBid >= finalPrice) {\r\n                    highestBindingBid = finalPrice;\r\n                    highestBidder = payable(sender);\r\n                    auctionState = State.Ended;\r\n                } else {\r\n                    highestBindingBid = min(\r\n                        currentBid,\r\n                        bids[highestBidder] + bidIncrement\r\n                    );\r\n                    highestBidder = payable(sender);\r\n                }\r\n            }\r\n        } else {\r\n            auctionState = State.Ended;\r\n        }\r\n    }\r\n\r\n    // funkcija inicijuojama, kai baigiasi aukciono laikas\r\n    function finishAuction(address _sender) public {\r\n        address sender = _sender;\r\n        require(auctionState == State.UserCancelled || block.number > endBlock);\r\n        require(sender == auctionOwner || bids[sender] > 0);\r\n\r\n        address payable recipient;\r\n        uint256 value;\r\n\r\n        if (highestBindingBid < minPrice) {\r\n            recipient = payable(sender);\r\n            value = bids[sender];\r\n        } else {\r\n            if (sender == auctionOwner) {\r\n                recipient = auctionOwner;\r\n                value = highestBindingBid;\r\n            } else {\r\n                if (sender == highestBidder) {\r\n                    recipient = highestBidder;\r\n                    value = bids[highestBidder] - highestBindingBid;\r\n                } else {\r\n                    recipient = payable(sender);\r\n                    value = bids[sender];\r\n                }\r\n            }\r\n        }\r\n        bids[recipient] = 0;\r\n        recipient.transfer(value);\r\n    }\r\n\r\n    // solidity neturi math funkcij, todl pasidarom MIN funkcij patys, kuri pritraukta prie aukciono logikos.\r\n    // pirmesnis bidas bus grinamas, net ir jei antras lygus jam. Tai yra pirmesnis bidas laimi.\r\n    function min(uint256 a, uint256 b) internal pure returns (uint256) {\r\n        if (a <= b) {\r\n            return a;\r\n        } else {\r\n            return b;\r\n        }\r\n    }\r\n\r\n    // funkcija owneriui ataukti aukciono kontrakt\r\n    function cancelAuction(address _sender) public {\r\n        address sender = _sender;\r\n        require(sender == auctionOwner);\r\n        auctionState = State.UserCancelled;\r\n    }\r\n\r\n    function returnState() external view returns (string memory) {\r\n        State temp = auctionState;\r\n        if (temp == State.Ongoing) return \"Ongoing\";\r\n        if (temp == State.Ended) return \"Ended\";\r\n        if (temp == State.UserCancelled) return \"UserCanceled\";\r\n        if (temp == State.Failed) return \"Failed\";\r\n        return \"\";\r\n    }\r\n\r\n    function currentBlockNumber() public view returns (uint256) {\r\n        uint256 currentBlock = block.number;\r\n        return currentBlock;\r\n    }\r\n\r\n    function blocksLeft() public view returns (uint256) {\r\n        uint256 currentBlock = block.number;\r\n        return endBlock - currentBlock;\r\n    }\r\n}\r\n",
  "sourcePath": "C:\\trunk\\dev\\edgos\\AuctionAngular\\contracts\\Auction.sol",
  "compiler": {
    "name": "solc",
    "version": "0.8.13+commit.abaa5c0e.Emscripten.clang"
  },
  "schemaVersion": "3.4.10",
  "updatedAt": "2022-11-01T22:03:48.839Z",
  "devdoc": {
    "kind": "dev",
    "methods": {},
    "version": 1
  },
  "userdoc": {
    "kind": "user",
    "methods": {},
    "version": 1
  }
}